{
  "transactions": [
    {
      "hash": "0xb0d462ee0366621052df86310036ceaef2fe4df5027744bfcd8c0816e5dd06b1",
      "transactionType": "CALL",
      "contractName": null,
      "contractAddress": "0x47d59023bc66e084db388d2cf7d7f5dd0984c3bd",
      "function": "mintNft(string)",
      "arguments": [
        "ipfs://bafybeib5ff6jvltcgyct2c225vfdobpmogfm4rb6ykjp3g75bklbdfiqne/?filename=test.json"
      ],
      "transaction": {
        "from": "0xeef4a5d62f1d61024dd0e4c7ed5f74b2d032344f",
        "to": "0x47d59023bc66e084db388d2cf7d7f5dd0984c3bd",
        "gas": "0x3d604",
        "value": "0x0",
        "input": "0xda86f4a900000000000000000000000000000000000000000000000000000000000000200000000000000000000000000000000000000000000000000000000000000056697066733a2f2f6261667962656962356666366a766c74636779637432633232357666646f62706d6f67666d34726236796b6a7033673735626b6c62646669716e652f3f66696c656e616d653d746573742e6a736f6e00000000000000000000",
        "nonce": "0xf",
        "chainId": "0xaa36a7"
      },
      "additionalContracts": [],
      "isFixedGasLimit": false
    }
  ],
  "receipts": [
    {
      "status": "0x1",
      "cumulativeGasUsed": "0x886aa9",
      "logs": [
        {
          "address": "0x47d59023bc66e084db388d2cf7d7f5dd0984c3bd",
          "topics": [
            "0xddf252ad1be2c89b69c2b068fc378daa952ba7f163c4a11628f55a4df523b3ef",
            "0x0000000000000000000000000000000000000000000000000000000000000000",
            "0x000000000000000000000000eef4a5d62f1d61024dd0e4c7ed5f74b2d032344f",
            "0x0000000000000000000000000000000000000000000000000000000000000000"
          ],
          "data": "0x",
          "blockHash": "0x7b1e736466592f758290e753d9e3262c3af54cf0b8fabbb87978a028e28203fc",
          "blockNumber": "0x6ffa09",
          "transactionHash": "0xb0d462ee0366621052df86310036ceaef2fe4df5027744bfcd8c0816e5dd06b1",
          "transactionIndex": "0x47",
          "logIndex": "0x4e",
          "removed": false
        }
      ],
      "logsBloom": "0x00000000000000000000000000000000000000000000000000000000000000000000000000000000000000000000000000000000000000000000000000000000000000000200000000000008000000000000000000000000000000000000000000000000024000200000000000000800000000000000000000000010000000000002000000000000000000000000000000000000080000000000000000000000000000000000000000000000000000000000000000000000000000000000000000000002000000000000000000000000000000000020000000000000000020000000000000000000000000000000000000000000000000000000000000000000",
      "type": "0x2",
      "transactionHash": "0xb0d462ee0366621052df86310036ceaef2fe4df5027744bfcd8c0816e5dd06b1",
      "transactionIndex": "0x47",
      "blockHash": "0x7b1e736466592f758290e753d9e3262c3af54cf0b8fabbb87978a028e28203fc",
      "blockNumber": "0x6ffa09",
      "gasUsed": "0x2c6f7",
      "effectiveGasPrice": "0x385544477",
      "from": "0xeef4a5d62f1d61024dd0e4c7ed5f74b2d032344f",
      "to": "0x47d59023bc66e084db388d2cf7d7f5dd0984c3bd",
      "contractAddress": null
    }
  ],
  "libraries": [],
  "pending": [],
  "returns": {},
  "timestamp": 1734959319,
  "chain": 11155111,
  "commit": "1d1dff7"
}